:100000000C94E9020C94720F0C944B0F0C94110396
:100010000C9411030C9411030C94B30A0C94110367
:100020000C9411030C9411030C9411030C94110300
:100030000C9411030C9411030C9411030C941103F0
:100040000C94010F0C9411030C94BF0F0C94990F96
:100050000C9411030C9411030C9411030C941103D0
:100060000C94F10F0C94110300407A10F35A00A085
:10007000724E18090010A5D4E80000E87648170071
:1000800000E40B54020000CA9A3B000000E1F505B1
:10009000000080969800000040420F000000A086FB
:1000A00001000000102700000000E803000000002D
:1000B0006400000000000A000000000001000000D1
:1000C00000002C76D888DC674F0823DFC1DFAE59EB
:1000D000E1B1B796E5E3E453C63AE651997696E87E
:1000E000E6C28426EB898C9B62ED407C6FFCEFBC02
:1000F0009C9F40F2BAA56FA5F490055A2AF75C932D
:100100006B6CF9676DC11BFCE0E40D47FEF520E662
:10011000B500D0ED902E0300943577050080841E45
:10012000080000204E0A000000C80C333333330FA0
:10013000986E12831141EF8D2114893BE65516CF3D
:10014000FEE6DB18D1844B381BF77C1D901DA4BB49
:10015000E424203284725E228100C9F124ECA1E5FE
:100160003D2754534D3A494E49540A002154534DAA
:100170003A494E49543A545350204641494C0A009A
:100180005453463A5349443A4F4B2C49443D256415
:100190000A00215453463A5349443A4641494C2CAB
:1001A00049443D25640A0054534D3A494E49543A56
:1001B0005354415449443D25640A0054534D3A492F
:1001C0004E49543A545350204F4B0A0054534D3A21
:1001D000465041520A002154534D3A465041523A3A
:1001E0004E4F205245504C590A002154534D3A4627
:1001F0005041523A4641494C0A0054534D3A4650F8
:1002000041523A4F4B0A0054534D3A49443A5245F1
:10021000510A0054534D3A49440A002154534D3A6F
:1002200049443A4641494C0A0054534D3A49443AEC
:100230004F4B0A0054534D3A55504C0A0021545329
:100240004D3A55504C3A4641494C0A0054534D3AA8
:1002500055504C3A444757432C4F3D25642C4E3D56
:1002600025640A0054534D3A55504C3A4F4B0A00FE
:1002700054534D3A52454144593A49443D25642C22
:100280005041523D25642C4449533D25640A0021C8
:1002900054534D3A52454144593A55504C204641E9
:1002A000494C2C534E500A0054534D3A4641494C48
:1002B0003A5044540A0054534D3A4641494C3A434B
:1002C0004E543D25640A0054534D3A4641494C3A38
:1002D00052452D494E49540A004D434F3A50494D1D
:1002E0003A4E4F4445205245473D25640A0021546B
:1002F00053463A4D53473A52454C204D53472C4EA6
:100300005245500A005453463A4D53473A42430A25
:10031000005453463A4D53473A41434B0A00215447
:1003200053463A4D53473A504F4E47205245435655
:100330002C494E4143544956450A005453463A4DC0
:1003400053473A504F4E4720524543562C48503D54
:1003500025640A005453463A4D53473A50494E4794
:1003600045442C49443D25642C48503D25640A00F1
:10037000215453463A4D53473A4650415220494E34
:100380004143544956450A005453463A4D53473A5F
:1003900046504152204F4B2C49443D25642C443D4E
:1003A00025640A005453463A4D53473A41434B2083
:1003B0005245510A00215453463A4D53473A50563C
:1003C00045522C25643D25640A00215453463A4D7C
:1003D00053473A4C454E2C2564213D25640A005470
:1003E00053463A4D53473A524541442C25642D25F6
:1003F000642D25642C733D25642C633D25642C7489
:100400003D25642C70743D25642C6C3D25642C7353
:10041000673D25643A25730A004D434F3A534C50CB
:100420003A5755503D25640A004D434F3A534C50BE
:100430003A5450440A004D434F3A534C503A4D53AE
:100440003D256C750A00214D434F3A534C503A54A8
:100450004E520A004D434F3A534C503A4D533D25AE
:100460006C752C534D533D25642C49313D25642C2E
:100470004D313D25642C49323D25642C4D323D25BE
:10048000640A0025735453463A4D53473A53454E38
:10049000442C25642D25642D25642D25642C733D65
:1004A00025642C633D25642C743D25642C70743DBB
:1004B00025642C6C3D25642C73673D25642C667483
:1004C0003D25642C73743D25733A25730A0021542D
:1004D00053463A5254453A465041522041435449BA
:1004E00056450A00215453463A534E443A544E520C
:1004F0000A004D434F3A5245473A5245510A00547B
:1005000053463A5755523A4D533D256C750A004DA6
:10051000434F3A42474E3A494E4954204F4B2C5490
:1005200053503D25640A004D434F3A42474E3A53DB
:1005300054500A004D434F3A42474E3A4246520AFF
:10054000004D434F3A42474E3A494E4954204E4F90
:1005500044452C43503D524E4E4E412D2D2C564578
:10056000523D322E312E310A0000000008000201F7
:1005700000000304070000000000000000214D43BC
:100580004F3A534E443A4E4F4445204E4F5420521A
:1005900045470A0000000000250028002B0000004D
:1005A0000000240027002A000404040404040404B6
:1005B000020202020202030303030303010204080E
:1005C00010204080010204081020010204081020BD
:1005D000421711241FBECFEFD8E0DEBFCDBF11E020
:1005E000A0E0B1E0EAE3FFE302C005900D92A63778
:1005F000B107D9F723E0A6E7B1E001C01D92AD3AFB
:10060000B207E1F712E0C9EED2E004C02197FE0183
:100610000E94811FC83ED107C9F70E9434160C946E
:100620009B1F0C9400000F931F930E94F20C0091EB
:10063000790110917A0120917B0130917C01601B3E
:10064000710B820B930B1F910F9108959C01809168
:100650007701909178018217930751F09091810171
:100660009F7190938101309378012093770105C0A9
:1006700080918101805E80938101E0917701F0910A
:1006800078010190F081E02D309709F009950E94E2
:10069000F20C6093790170937A0180937B019093BF
:1006A0007C010895CF92DF92EF92FF920F931F93F8
:1006B000CF93DF93CDB7DEB7C857D1090FB6F89403
:1006C000DEBF0FBECDBF0E94F20C9B01AC0119A290
:1006D0008E010F5D1F4F8AE0C82ED12CE12CF12C2A
:1006E000CA01B901A70196010E945F1F605DF80170
:1006F00062938F01211531054105510589F7CF011D
:100700000E94D01489E491E00E94D0149E012B57DE
:100710003F4FCD57DF4F48815981C358D04068E7DC
:1007200070E0CE0101960E946E18CE0101960E94E3
:10073000D0148BE792E00E94980BC858DF4F0FB699
:10074000F894DEBF0FBECDBFDF91CF911F910F9107
:10075000FF90EF90DF90CF9008952F923F924F92AD
:100760005F926F927F928F929F92AF92BF92CF9241
:10077000DF92EF92FF920F931F93CF93DF93CDB74A
:10078000DEB72C970FB6F894DEBF0FBECDBFE09159
:100790007701F09178010280F381E02D309709F024
:1007A00009958091810184FB222720F9298784FF04
:1007B00055C386E0D82E90E0E92E90E0F92E9E01F8
:1007C0002F5F3F4F3C832B8320EA822E26E8922E18
:1007D000AA24A394B12C34EB432E3BE2532E31E1F7
:1007E000632E712C21E041E060E070E087E10E941F
:1007F000601180FD33C3DA94DD2009F42FC3E114C6
:10080000F10421F081E090E00E94000021E041E04D
:1008100060E070E080E60E946011C82E30E2381778
:1008200020F482EE0E94B511C12C21E04C2D67E826
:1008300073E081E60E94601160E487E20E949211F9
:1008400080918A03282F2695269526952A3108F02F
:1008500029E182FD03C077E0720F01C070E2809150
:100860008B0387708D8310918C03009188032090F7
:1008700087033090890387E893E02A877C870E946A
:1008800020142A85422F50E09F938F9380918A03F2
:1008900082FB882780F91F928F931F922F9380915C
:1008A0008B038295869587701F928F931F921F935B
:1008B0001F922D812F9380918D031F928F931F92F2
:1008C0003F921F922F921F920F93AFEDB3E0BF9311
:1008D000AF934A875B870E9452030FB6F894DEBF3E
:1008E0000FBECDBF7C854A855B85C71679F0E114C4
:1008F000F10429F08CE690E00E9400007C851F92B4
:100900007F931F92CF928AEC93E017C020918A03C5
:10091000822F83708230E1F0E114F10421F08DE642
:1009200090E00E9400001F9282E08F9380918A03E2
:1009300083701F928F9385EB93E09F938F930E9418
:1009400052030F900F900F900F900F900F904ACF7F
:1009500080918201806880938201809178023812B0
:1009600059C0822F8695869586958A3108F089E14F
:1009700038E0839FC00111242770822B80938A0363
:10098000FA01E957FC4F178280918B0383FF21C046
:1009900084EA93E09F938F930E94520381E2E7E8F9
:1009A000F3E0A6E6B3E001900D928A95E1F780911D
:1009B0006A03877F806180936A03809178028093C5
:1009C00067030093680386E693E00E94B3120F90DA
:1009D0000F9090918B0394FD0BC02D81233081F4F7
:1009E00080918C0321EF280F233008F055C0FACEF8
:1009F000A1E1B3E0BF93AF930E9452030F900F9019
:100A000020E030E0232B09F4EDCE87E893E00E944C
:100A10000000E8CE3FEF331236C0A5E0B3E0BF934D
:100A2000AF930E9452030F900F902D81233031F528
:100A30008091810182FF03C0173009F4D3CE1830B2
:100A400009F4D0CE143109F0CDCE8091790228126C
:100A5000C9CE0E94F20C7370882799270E94FA155C
:100A60001091790225E143E06FEF802F0E94F2138D
:100A7000612F0E941F110E94BB11B4CE8091790298
:100A80002812B0CEBDCFAEEEB2E0BF93AF930E94BE
:100A900052030F900F90A6CE143009F4A3CE183055
:100AA00011F51091810110FF1BC00E94BD148F3FF2
:100AB00009F498CE8F5F8F3F09F494CE90917A021B
:100AC000891708F08FCE11FD8DCE80937A020093A6
:100AD00079021F928F931F920F9388E893E02DCF96
:100AE00080E793E030C01831C1F40E94BD141F921A
:100AF0008F931F920F9384E593E09F938F930E94AF
:100B0000520329E143E06FEF802F0E94F21361E06E
:100B10000E941F110E94BB1114CF1931B9F48091AA
:100B2000810183FF0EC0877F809381010E94BD14E5
:100B3000809383011F928F938BE393E09F938F9316
:100B40003CC08EE193E09F938F93A1CF20918803C7
:100B5000211180C18D3099F480E090E0892B21F043
:100B60008BE090E00E94000098E088E10FB6F894D6
:100B7000A895809360000FBE90936000FFCF8B31EB
:100B800019F50E94BD1491E0811101C090E080919F
:100B9000440290FB80F980934402E114F10421F0B7
:100BA0008AE090E00E9400008091440281701F92D0
:100BB0008F93A9EDB2E0BF93AF930E9452030F90C1
:100BC0000F900F900F900ECE8630A9F490918E0367
:100BD000992329F081E09D3419F080E001C08985D6
:100BE0008093430241E050E063E071E083E492E0EF
:100BF0000E94991EF7CD833119F40E94C212F2CDE2
:100C00008231F1F40E9413036D837E838F83988772
:100C100026E143E06FEF80E00E94F213FC01848143
:100C20008F71806A848383818770806283838D81E2
:100C30009E81AF81B88587839087A187B287DAC00C
:100C4000813001F5A0E0B0E0AB2B09F4CBCD92955B
:100C500096959770953049F460918E0370918F034B
:100C600080919003909191030AC0911105C08EE884
:100C700093E00E94D41703C060E070E0CB010E94B3
:100C80000000B0CD8A3009F4ADCD8C3109F0B8CE7A
:100C900080918E03823509F4A5CD8635B1F58EE4B9
:100CA00080937C0066E470E080E090E00E94FA159A
:100CB00080917A00806480937A0080917A0086FD2A
:100CC000FCCF20907800309079002CE143E06FEF6A
:100CD00080E00E94F2138C01FC0184818F71806698
:100CE00084838381877080618383910140E050E039
:100CF000C301B2010E945F1FD80118963C932E9346
:100D00001797C8010E94B3126DCD863409F052C006
:100D1000F8948FEF86BB1092850010928400109299
:100D2000800010928200909160002DE088E10FB663
:100D3000F894A895809360000FBE20936000809186
:100D40006000806480936000A89585E080938100B6
:100D50008091600087FFFCCF10928100A895809160
:100D60006000886180936000909360007894209088
:100D70008400309085002CE143E06FEF80E00E941A
:100D8000F2138C01FC0184818F71806684838381DE
:100D9000877080618383C101A0E0B0E0BC01CD0118
:100DA0004BE0660F771F881F991F4A95D1F7A50161
:100DB0009401A0CF8D3401F50091A9031091AA03ED
:100DC0000115110511F40DEA13E02CE143E06FEF7A
:100DD00080E00E94F213FC0184818F71806684831D
:100DE00083818770806183838B819C81801B910BC1
:100DF00090878783CF0186CF853409F0F3CC2CE12F
:100E000043E06FEF80E00E94F2136BE471E00E9418
:100E10002B110E94B31200E010E06FEFC8010E9496
:100E2000A91E0F5F1F4F0D39B1E01B07B1F780E01E
:100E300090E0892B21F08BE090E00E94000098E088
:100E400088E10FB6F894A895809360000FBE909348
:100E50006000FFCF8A3109F0D3CDC4CC2C960FB6F9
:100E6000F894DEBF0FBECDBFDF91CF911F910F91E0
:100E7000FF90EF90DF90CF90BF90AF909F908F90BA
:100E80007F906F905F904F903F902F9008950F93B9
:100E90001F930E941303209182012077203729F0AD
:100EA00000E117E220E030E004C000E61AEE20E0A6
:100EB00030E0061717072807390770F487EC92E02F
:100EC0009F938F930E9452030F900F9081E291E0C5
:100ED0001F910F910C9426031F910F9108958091FB
:100EE0008201982F9077903759F0982F92959F70A4
:100EF0009F5F97709295907F8F78892B8093820166
:100F000080918201829587701F928F9386EB92E089
:100F10009F938F930E945203809181018B7F8F7EDC
:100F2000809381010F900F900F900F9080E090E0E0
:100F3000892B21F087E690E00E94000088EA92E089
:100F40009F938F930E9452030F900F900C94A311C4
:100F5000809182018F70863060F08FE892E09F93DD
:100F60008F930E9452030F900F9087E191E00C94B1
:100F70002603089580917A021F928F9380917902BF
:100F80001F928F93809178021F928F9380E792E057
:100F90009F938F930E94520380918101846080937C
:100FA000810180918201807880938201E091D40157
:100FB000F091D5018DB79EB708960FB6F8949EBFF5
:100FC0000FBE8DBF309709F0099408958091830179
:100FD0008F3F79F10E94F20C60937D0170937E0146
:100FE00080937F019093800184E692E09F938F939A
:100FF0000E9452039091830180917A020F900F908A
:101000009817A1F01F929F931F928F938CE492E008
:101010009F938F930E9452038091830180937A0261
:101020000F900F900F900F900F900F9083E191E031
:1010300025C00E941303613D77408105910500F1B1
:1010400080918101803618F48FE091E017C08DE324
:1010500092E09F938F930E94520380918101877F3A
:10106000809381010F900F9080E090E0892B21F018
:101070008AE690E00E94000087E191E00C9426034C
:10108000089584E392E09F938F930E9452030F9000
:101090000F9080E090E0892B21F088E090E00E94A2
:1010A00000008FEF8093830180918101886080939D
:1010B000810128E143E06FEF80E00E94F21361E0DC
:1010C0000E941F110C94BB11809178028F3F99F000
:1010D00089E292E09F938F930E9452030F900F90AA
:1010E00080E090E0892B21F087E090E00E940000F2
:1010F0008FE091E020C00E941303613D774081059D
:101100009105D8F080918101803618F48BE091E050
:1011100012C08BE192E09F938F930E9452030F9035
:101120000F9080E090E0892B21F089E690E00E940A
:10113000000087E091E00C942603089583E192E09B
:101140009F938F930E9452030F900F90809178028B
:101150008F3FE1F480E090E0892B21F086E090E081
:101160000E94000087E092E09F938F930E945203B9
:1011700023E043E06FEF80E00E94F2136AE471E045
:101180000E942B110F900F900C94BB1108950E9498
:101190001303613D77408105910520F48091810121
:1011A00081FF0895809179028F3FC1F08AEF91E02D
:1011B0009F938F930E945203809181018E7F809331
:1011C00081010F900F9080E090E0892B21F085E065
:1011D00090E00E9400008BE091E021C080918101AD
:1011E000803658F486ED91E09F938F930E945203CE
:1011F0000F900F9087E191E012C08AEE91E09F93EB
:101200008F930E9452030F900F9080E090E0892B03
:1012100021F088E690E00E94000087E091E00C94C5
:1012200026038CEC91E09F938F930E9452030F90C2
:101230000F9080E090E0892B21F084E090E00E9404
:10124000000080918101897F8160809381018FEF0F
:1012500080937A028093790227E043E06FEF0E9447
:10126000F2136AE471E00E942B110C94BB11CF932E
:10127000219A229ACFB7F89480917601811124C0E7
:10128000E2EBF5E08491E6ECF5E09491E82FF0E0F4
:10129000EE0FFF1FE256FA4FA591B491EC91E923AE
:1012A00021F461E08AE00E94AE158AE00E940114F8
:1012B0008CB580618CBD8CB580648CBD8DE00E9446
:1012C00001148BE00E940114809176018F5F80935E
:1012D0007601CFBF29982A9A6EE080E20E9492118F
:1012E00065E070E080E090E00E94FA1563E083E240
:1012F0000E9492116FE584E20E9492116CE485E2F3
:101300000E94921167E286E20E94921163E780E5F3
:101310000E94921166E08DE30E94921121E041E06B
:1013200060E070E086E00E946011C82F21E041E09B
:1013300060E070E085E00E9460118C3409F097C095
:10134000C73209F094C062E082E20E94921160E02C
:1013500081E20E94921163E08CE30E9492118FEF70
:101360008093020120E045E062E071E08BE20E94A0
:10137000601120E045E062E071E08AE20E946011C5
:1013800020E045E062E071E080E30E94601182EEBF
:101390000E94B51181EE0E94B51160E787E20E94BC
:1013A00092118BEB91E09F938F930E945203809157
:1013B00081018061809381011F92CCE6CF9387EAFF
:1013C00091E09F938F930E945203C09378026CE642
:1013D00080E090E00E94A91EC09178020F900F90CB
:1013E0000F900F900F900F90CF3FE1F18FEF8C0F88
:1013F0008E3FF0F4C093200163E082E20E949211DC
:1014000061E081E20E9492110E94A8116C2F80E09D
:1014100090E00E94A91E1F92CF9380E891E09F93D5
:101420008F930E9452030F900F900F900F901AC04D
:101430001F921F9282E991E09F938F930E94520323
:101440000F900F900F900F9080E090E0892B21F08B
:101450008EE690E00E9400008FEF8093780287E094
:1014600091E002C087E191E0CF910C9426038CE6D5
:1014700091E09F938F930E9452030F900F9080E012
:1014800090E0892B61F387E690E00E940000E7CFAF
:1014900082E691E09F938F930E945203E1E8F1E08E
:1014A0008081877F8F7E808310927D0110927E01E4
:1014B00010927F01109280010F900F9043E050E056
:1014C00060E070E088E792E00C94891E20917A0039
:1014D0002F7720937A00309160008A309105B1F027
:1014E00083FD02C028E001C028E28770822B98E1CA
:1014F0000FB6F894A895909360000FBE809360009B
:10150000809160008065809360000BC00FB6F894F6
:10151000A8958091600088618093600010926000BF
:101520000FBE83B7817F846083BFF89483B78160E7
:1015300083BF85B7806685BF8F7D85BF789488958A
:1015400083B78E7F83BFF894A895809160008861EF
:101550008093600030936000789480917A00806876
:1015600080937A0008951F920F920FB60F92112464
:101570000F900FBE0F901F9018950895CF92DF9295
:10158000EF92FF920F931F93CF93DF936C017A0139
:101590008B01C0E0D0E0CE15DF0589F0D8016D9158
:1015A0008D01D601ED91FC910190F081E02DC601F5
:1015B0000995892B11F47E0102C02196ECCFC70159
:1015C000DF91CF911F910F91FF90EF90DF90CF901F
:1015D0000895FC01538D448D252F30E0842F90E039
:1015E000821B930B541710F0CF960895019708951E
:1015F000FC01918D828D981761F0828DDF01A80F1B
:10160000B11D5D968C91928D9F5F9F73928F90E03C
:1016100008958FEF9FEF0895FC01918D828D9817AB
:1016200031F0828DE80FF11D858D90E008958FEFE8
:101630009FEF0895FC01918D228D892F90E0805CB1
:101640009F4F821B91098F73992708958BE792E032
:101650000E941A0B21E0892B09F420E0822F0895C3
:10166000FC01848DDF01A80FB11DA35ABF4F2C913F
:10167000848D90E001968F739927848FA689B7890E
:101680002C93A089B1898C9180648C93938D848DE7
:10169000981306C00288F389E02D80818F7D8083B6
:1016A0000895EF92FF920F931F93CF93DF93EC0176
:1016B00081E0888F9B8D8C8D981305C0E889F9890E
:1016C000808185FD24C0F62E0B8D10E00F5F1F4F2B
:1016D0000F731127E02E8C8DE8120CC00FB607FC9B
:1016E000FACFE889F989808185FFF5CFCE010E9484
:1016F000300BF1CF8B8DFE01E80FF11DE35AFF4F48
:10170000F0820B8FEA89FB898081806207C0EE89B5
:10171000FF896083E889F98980818064808381E022
:1017200090E0DF91CF911F910F91FF90EF9008957E
:10173000CF93DF93EC01888D8823C9F0EA89FB8978
:10174000808185FD05C0A889B9898C9186FD0FC06F
:101750000FB607FCF5CF808185FFF2CFA889B98944
:101760008C9185FFEDCFCE010E94300BE7CFDF914A
:10177000CF91089580E090E0892B29F00E94260BFC
:1017800081110C94000008950895E091D801809192
:10179000D701E81730F4F0E0E752FE4F808190E087
:1017A00008958FEF9FEF08959091D8018091D70110
:1017B000981750F4E92FF0E0E752FE4F208130E017
:1017C0009F5F9093D80102C02FEF3FEFC9010895AA
:1017D0008091D70190E02091D801821B9109089552
:1017E000089580E090E0089585ED8093BC0080919D
:1017F000BC0084FDFCCF10921F0208954091A60109
:10180000262F30E0240F311D21323105DCF42091E8
:101810001F022430C9F4FC0180E090E0861758F4E0
:101820003091A6012191DC01AC57BE4FA30FB11D31
:101830002C930196F3CF8091A601680F6093A601C7
:1018400080E0089581E0089582E00895CF92DF92CC
:10185000EF92FF920F931F93CF93DF937C01262F7C
:10186000972F8A0180912002882391F0C62FD72FCD
:101870006E01C40ED51ECC15DD0571F06991D7013E
:10188000ED91FC910190F081E02DC7010995F3CF16
:10189000642F822F0E94FE0BC801DF91CF911F9110
:1018A0000F91FF90EF90DF90CF900895CF93DF934B
:1018B0001F92CDB7DEB76983209120022223D1F099
:1018C00020914202203240F021E030E0FC013383DD
:1018D000228380E090E015C080912102E82FF0E0A3
:1018E000EE5DFD4F998190838F5F809321028093FD
:1018F000420205C061E0CE0101960E94FE0B81E02C
:1019000090E00F90DF91CF9108950E94871F109271
:10191000D8011092D7011092210210924202109227
:101920001F0281E080931E021092F90161E082E1C2
:101930000E94AE1561E083E10E94AE15E9EBF0E094
:1019400080818E7F808380818D7F808388E48093F7
:10195000B80085E48093BC0008952BE043E06FEF6E
:1019600080E00E94F2136EE471E00E942B110E944D
:10197000B3122CE043E06FEF80E00E94F21365E6C3
:1019800071E00E942B110E94B31267E080E00E9478
:10199000E21466E081E00C94E2143FB7F894809181
:1019A000D0019091D101A091D201B091D30126B57F
:1019B000A89B05C02F3F19F00196A11DB11D3FBF87
:1019C000BA2FA92F982F8827820F911DA11DB11D15
:1019D000BC01CD0142E0660F771F881F991F4A9511
:1019E000D1F708952FB7F8946091CC017091CD0193
:1019F0008091CE019091CF012FBF08958F929F9239
:101A0000AF92BF92CF92DF92EF92FF92CF9381E19C
:101A10000E9494150E94801580FDFCCF0E944715FE
:101A20009695879596958795BC0180E090E00E94F9
:101A30008E1D20E030E040E05DE30E94CB1D20E001
:101A400030E048E452E40E94F21E4B015C0181E068
:101A50000E9494150E94801580FDFCCF0E944715BE
:101A60007C0180912703877088628093270380918F
:101A70002803806E8093280380922B0390922C037E
:101A8000A0922D03B0922E03C1E0C0932F0384E2F5
:101A900093E00E94F81480914803877088628093D5
:101AA000480380914903806E80934903B70184E025
:101AB000769567958A95E1F780E090E00E948E1D0B
:101AC00020E030E040E85DE30E94CB1D20E030E004
:101AD00040EC51E40E94F21E60934C0370934D035E
:101AE00080934E0390934F03C093500385E493E09B
:101AF0000E94F8141F928FEF8F931F928F931F9263
:101B00008F931F928F931F921F921F92CF9384EDFA
:101B10008F9380EC8F9384E594E09F938F930E9442
:101B20005203809181012DB73EB7205F3F4F0FB622
:101B3000F8943EBF0FBE2DBF82FD1BC086E494E02B
:101B40009F938F930E9452030E94F20C6B017C01C1
:101B50000F900F9080E090E0DC012091810122FD48
:101B60003CC0803127E29207A105B10508F459C0B5
:101B700034C030EC832E34ED932EAA24A394B12CE0
:101B800089E294E09F938F930E9452030E94A311D5
:101B90000F900F9080E090E0892B21F08EE090E094
:101BA0000E9400008BE792E00E94980B80911B013D
:101BB0008F3F09F042C080E488168FE19806A104A7
:101BC000B104D8F189E090E00E94660A30E4831AFB
:101BD0003FE1930AA108B108E9CF803C34ED9307B7
:101BE00031E0A307B10508F002C140EC842E44EDBA
:101BF000942EAA24A394B12C881A990AAA0ABB0A83
:101C0000BF92AF929F928F9286E394E09F938F93BF
:101C10000E9452030F900F900F900F900F900F9013
:101C2000AFCFA8950E94AD030E94F20CDC01CB015E
:101C30008C199D09AE09BF0990CF7501640180918F
:101C40001B018F3F41F420EA82162FE09206A10487
:101C5000B10408F071C080911B018F3F41F430ED59
:101C6000C31637E0D306E104F10408F072C0809196
:101C70001B018F3F41F488EEC81683E0D806E104CB
:101C8000F10408F071C080911B018F3F41F424EFF3
:101C9000C21621E0D206E104F10408F070C0809180
:101CA0001B018F3F39F43AEFC316D104E104F1046C
:101CB00008F070C080911B018F3F39F48DE7C81682
:101CC000D104E104F10408F06FC080911B018F3F43
:101CD00039F420E4C216D104E104F10408F06EC026
:101CE00080911B018F3F39F430E2C316D104E10427
:101CF000F10408F06DC080911B018F3F39F480E141
:101D0000C816D104E104F10408F06CC080E090E052
:101D1000892B21F08FE090E00E9400008FEF8F93DD
:101D20008F9389E194E09F938F930E9452030F90C9
:101D30000F900F900F905BC088E090E00E94660AC1
:101D40007501640180EAC81A8FE0D80AE108F10839
:101D500082CF87E090E00E94660A20EDC21A27E059
:101D6000D20AE108F10883CF86E090E00E94660A7B
:101D700038EEC31A33E0D30AE108F10884CF85E0D6
:101D800090E00E94660A84EFC81A81E0D80AE10850
:101D9000F10885CF84E090E00E94660A2AEFC21A1B
:101DA000D108E108F10886CF83E090E00E94660A3E
:101DB00038E7C31AD108E108F10887CF82E090E044
:101DC0000E94660A8CE3C81AD108E108F10888CF9E
:101DD00081E090E00E94660A2EE1C21AD108E10873
:101DE000F10889CF80E090E00E94660A8FCFCF9102
:101DF000FF90EF90DF90CF90BF90AF909F908F902B
:101E000008951F920F920FB60F9211242F933F93B4
:101E10008F939F93AF93BF938091CC019091CD010D
:101E2000A091CE01B091CF013091CB0123E0230FDF
:101E30002D3720F40196A11DB11D05C026E8230F02
:101E40000296A11DB11D2093CB018093CC019093EC
:101E5000CD01A093CE01B093CF018091D00190919C
:101E6000D101A091D201B091D3010196A11DB11D64
:101E70008093D0019093D101A093D201B093D3016C
:101E8000BF91AF919F918F913F912F910F900FBE76
:101E90000F901F9018951F920F920FB60F9211245A
:101EA0002F933F934F935F936F937F938F939F9362
:101EB000AF93BF93EF93FF93E0911E01F0911F0149
:101EC0000995FF91EF91BF91AF919F918F917F9174
:101ED0006F915F914F913F912F910F900FBE0F9097
:101EE0001F9018951F920F920FB60F9211242F93E7
:101EF0003F934F935F936F937F938F939F93AF9392
:101F0000BF93EF93FF93E0911C01F0911D010995A0
:101F1000FF91EF91BF91AF919F918F917F916F91C1
:101F20005F914F913F912F910F900FBE0F901F9097
:101F300018951F920F920FB60F9211242F933F9373
:101F40004F935F936F937F938F939F93AF93BF93C1
:101F5000EF93FF938BE792E00E94300BFF91EF919C
:101F6000BF91AF919F918F917F916F915F914F91B1
:101F70003F912F910F900FBE0F901F9018951F92B9
:101F80000F920FB60F9211242F938F939F93EF937D
:101F9000FF93E0918B02F0918C028081E09191029D
:101FA000F091920282FD12C09081809194028F5F25
:101FB0008F7320919502821751F0E0919402F0E026
:101FC000E558FD4F958F8093940201C08081FF9169
:101FD000EF919F918F912F910F900FBE0F901F90B7
:101FE00018951F920F920FB60F9211242F933F93C3
:101FF0004F935F936F937F938F939F93AF93BF9311
:10200000EF93FF938091B900887F803609F49CC0DC
:1020100068F5883209F45BC090F4803109F454C04B
:1020200038F4882309F4F6C0883009F44DC0F6C0AE
:10203000883109F44CC0803209F45DC0EFC08034AF
:1020400009F468C048F4803309F455C0883309F0B6
:10205000E5C080931D02D8C0803509F44FC0883593
:1020600009F45DC0883409F0D9C0D6C0883909F4B4
:10207000C7C0A8F4883709F467C038F4883609F473
:1020800063C0803709F460C0C9C0883809F4B8C09B
:10209000803909F45FC0803809F0C0C05BC0803B64
:1020A00009F486C038F4803A09F466C0883A09F425
:1020B0007FC0B4C0803C09F4A7C0883C09F4A4C028
:1020C000883B09F48AC0AAC08091FA0110C090919F
:1020D0001C0280911B02981770F5E0911C0281E0B0
:1020E0008E0F80931C02F0E0E550FE4F80818093BC
:1020F000BB0085EC86C080931D028EC0E0911C025F
:1021000081E08E0F80931C028091BB00F0E0E550CF
:10211000FE4F808390911C0280911B026EC0E09163
:102120001C0281E08E0F80931C028091BB00F0E0C6
:10213000E550FE4F808380911E0281116DC081E0C9
:102140008093F90184EA61C083E080931F021092BA
:10215000CA01CFCF8091CA01803208F051C0E0910E
:10216000CA0181E08E0F8093CA018091BB00F0E02C
:10217000E655FE4F8083BDCF85EC8093BC00109266
:102180001F028091CA01803230F4E091CA01F0E070
:10219000E655FE4F10826091CA0170E0E091A801FF
:1021A000F091A9018AEA91E009951092CA0136C01E
:1021B00084E080931F021092A7011092A601E09183
:1021C000A401F091A50109958091A601811105C096
:1021D00081E08093A60110928401E091A70181E043
:1021E0008E0F8093A701F0E0EC57FE4F8081809323
:1021F000BB009091A7018091A601981708F479CFB0
:1022000085E88093BC000AC085EC8093BC001092E6
:102210001F0204C010921D020E94F40BFF91EF9167
:10222000BF91AF919F918F917F916F915F914F91EE
:102230003F912F910F900FBE0F901F901895FC01AA
:10224000838187708860838384818F7180628483B7
:102250006783CF0108950F931F93CF93DF93EC0112
:102260006115710561F0FB0101900020E9F73197DC
:10227000E61BF70BE931F10518F0E9E101C0E0E0F8
:102280000E2F10E0C80123E0880F991F2A95E1F76F
:102290009B819770892B8B838C818F718C83EE232C
:1022A00029F0A801CE0107960E948C1FFE01E00FC5
:1022B000F11F1782CE01DF91CF911F910F910895E9
:1022C00091E59CBD91E09DBD2A98E3E2F0E0319755
:1022D000F1F78EBD00000DB407FEFDCF8EB5FB01FA
:1022E0009FEF4150C8F0222361F09EBD00000DB465
:1022F00007FEFDCF8EB56115710599F38083319688
:10230000F0CFDF01119680818EBD00000DB407FE75
:10231000FDCF8EB5FD01E5CF2A9AE3E2F0E03197DB
:10232000F1F70895CF93DF931F92CDB7DEB769839E
:1023300020E041E0BE016F5F7F4F0E9460110F906F
:10234000DF91CF91089529986CE080E20C9492116E
:102350006FE080E20E949211609120016F3F19F0BE
:102360008AE20E949211299A089520E040E060E0FC
:1023700070E00C946011AF92BF92CF92DF92EF9217
:10238000FF920F931F93CF93DF93EC018A8190917B
:10239000810190FF0CC08F3F79F08EEC94E09F9309
:1023A0008F930E9452030F900F9010E0D0C08F3F88
:1023B00019F00091790201C00FEF809178028883B3
:1023C0004B8142FD06C046954695469517E0140F91
:1023D00001C010E280E090E0892B21F080E090E0E5
:1023E0000E940000299883E092E00197F1F76EE0E7
:1023F00080E20E9492118BE891E00197F1F7602F43
:102400008AE20E949211602F80E30E94921181EE75
:102410000E94B5110F3F11F080EA01C080EB412FFF
:10242000113208F040E220E0BE010E946011299ABA
:10243000E12CF12C8FEF0E94B511182F807321F43D
:1024400081E0E81AF108B1F7299860E387E20E9479
:10245000921114FF03C081EE0E94B5110E94A811D1
:1024600015FB112710F981E00F3F09F080E0182BD0
:10247000CE010E942014111103C0E9E6F1E002C070
:10248000EBE4F1E0609182016F702B8122FBAA24C2
:10249000A0F8322F3695369536952C81B22EB2940F
:1024A000B69447E0B422CD802770DE80EA80A02F6A
:1024B000B0E0F8807981111103C04EE651E002C00E
:1024C0004AE451E09F938F93FF93EF931F926F9392
:1024D0001F92AF921F923F931F92BF921F92CF9273
:1024E0001F922F931F92DF921F92EF92BF93AF9391
:1024F0001F92FF921F927F935F934F9383E894E024
:102500009F938F930E9452038DB79EB74E960FB63E
:10251000F8949EBF0FBE8DBF80917902081317C03B
:10252000111110C080E090E0892B21F085E690E049
:102530000E9400008091820191E0980F9F70807F3F
:10254000892B03C080918201807F80938201812F3B
:10255000DF91CF911F910F91FF90EF90DF90CF907F
:10256000BF90AF9008952091810122FD0C94BB1182
:1025700084EE94E09F938F930E9452030F900F90EC
:1025800080E00895CF9380E090E0892B21F08CE0EB
:1025900090E00E9400002FE043E06FEF80E00E9497
:1025A000F2136AE471E00E942B1180916903877035
:1025B00080618093690380916A038F71806C80933E
:1025C0006A0381E080936D0310926E0386E693E0C8
:1025D0000E94B3128FE00E94111561E18FEF0E94FB
:1025E000E214C091790226E043E06FEF80E00E94A0
:1025F000F2136C2F0E941F110E94B31286E00E94FA
:102600001115CF910C94AD0CCF938091440281FDB4
:102610002FC00E94C21282EF94E09F938F930E947A
:1026200052030F900F9080E090E0892B21F089E019
:1026300090E00E94000080914402816080934402F7
:10264000C4E02AE143E06FEF80E00E94F21362E011
:102650000E941F110E94B3128BE10E94111581117B
:1026600002C0C15071F7809144028260809344029D
:10267000CF910895382F209142029091A8032132E2
:1026800008F049C080911F028111FCCF42E04093C5
:102690001F0230931E023FEF30931D0210921C0266
:1026A00020931B02A2E2B2E04BEF51E0FA013E2F71
:1026B000341B321718F43D913193F9CF1092FA017F
:1026C0002091FA01990F922B9093FA019091F901C0
:1026D000913061F41092F9019091FA019093BB004E
:1026E0009091BC0093FDF8CF95EC01C095EE9093CE
:1026F000BC0090911F029230E1F390911D029F3F28
:1027000079F080911D02803241F080911D0280336A
:1027100031F084E005C081E003C082E001C083E0C5
:10272000109221021092420210922002089591E02C
:102730009093200290E49093A803109221021092AB
:102740004202682F88E193E00E94560C81E00C94CD
:102750003A1390911F029111FCCF813208F080E270
:1027600091E090931F0290931E022FEF20931D0281
:1027700010921C02280F20931B029093FA01909153
:10278000FA0190689093FA019091F901913061F407
:102790001092F9019091FA019093BB009091BC00C6
:1027A00093FDF8CF95EC01C095EE9093BC0090910D
:1027B0001F029130E1F390911C02981710F4809160
:1027C0001C02ABEFB1E029ED31E0F9019E2F921B25
:1027D000981718F49D919193F9CF1092D801809396
:1027E000D7010895E6E6F3E0909178029183828321
:1027F0006683258347708481807E482B4483CF0184
:10280000089590E0FC01E454FA4F2491FC01E8554E
:10281000FA4F8491882399F090E0880F991FFC016A
:10282000E256FA4FA591B491FC01EC56FA4F85910E
:1028300094918FB7F894EC91E22BEC938FBF0895AD
:102840000F931F93CF93DF93EC018C818295869534
:10285000877091F44B8146954695469550E0BE01B0
:10286000695F7F4F85E492E00E948C1FEB81E695C3
:10287000E695E695F0E077C0813031F48F814AE04B
:1028800065E472E090E007C0823041F44AE065E41C
:1028900072E08F8198850E94FB1768C0833041F4F5
:1028A0004AE065E472E08F8198850E9454185EC00A
:1028B000843051F46F81788589859A852AE045E4D2
:1028C00052E00E94061852C0853051F46F8178851D
:1028D00089859A852AE045E452E00E94321846C074
:1028E000873071F42B85293008F028E06F817885D6
:1028F00089859A8505E412E042E00E94961736C069
:102900008630A1F520E0EB81E695E695E6952E1759
:1029100038F5E22FF0E0AF01440F551FDA01AB5B51
:10292000BD4FEC0FFD1F8781082E000C990B34E082
:10293000959587953A95E1F78F708A3010F4805D10
:1029400001C0895C8C93DA01AA5BBD4F87818F70CF
:102950008A3010F4805D01C0895C8C932F5FD3CFE7
:10296000F0E0EE0FFF1FEB5BFD4F108285E492E07D
:10297000DF91CF911F910F91089580918B038295E4
:1029800086958770813019F480918E0308958111A6
:1029900005C08EE893E00E94B617089580E0089580
:1029A000009769F0FC0101900020E9F73197AF0131
:1029B000481B590BBC018BE792E00C94BE0A80E0E7
:1029C00090E00895CF93DF93262F8F3F19F0CAE44C
:1029D000D1E002C0C0E7D1E040E0682F80E00E9473
:1029E000F213BE010E942B11DF91CF910C94B31210
:1029F000FC018091780281839481907F916094831F
:102A00008091440280FF03C0CF010C94B3128DE784
:102A100095E09F938F930E9452030F900F9080E058
:102A20000895CF92DF92EF92FF92CF93DF93D82F4A
:102A30000E94F20C6B017C0181E0D11180E0809357
:102A40008C03C0E00E94F20CAB01BC014C195D0983
:102A50006E097F09403D57406105710580F4C11141
:102A60000EC0A8950E94AD0390918B039770933090
:102A700049F7C1E080918C038D13E3CFE3CF8C2F16
:102A8000DF91CF91FF90EF90DF90CF9008950F935B
:102A90001F93CF93DF9300D000D000D0CDB7DEB727
:102AA0008E010F5F1F4F86E0F80111928A95E9F7BA
:102AB00081E00E94971383E090E00E94A913909117
:102AC000D7018091D801981749F088E193E00E94DE
:102AD000D40BF801819391938F01F1CF80E090E0C6
:102AE0009B812D813E81822B932B26960FB6F894E5
:102AF000DEBF0FBECDBFDF91CF911F910F91089523
:102B000080E00E94971381E090E00E94A91380E08A
:102B10002091D7019091D801291729F088E193E0FD
:102B20000E94D40BF5CF0895CF93C82F81E08093F6
:102B3000200280E48093A8031092210210924202A6
:102B400063E088E193E00E94560C6C2F88E193E0EB
:102B50000E94560C81E0CF910C943A1390E0FC0156
:102B6000E759FA4F3491FC01E454FA4F2491FC01E7
:102B7000E855FA4FE491EE2309F43BC0332339F1D1
:102B8000333091F038F43130A9F0323001F584B5AA
:102B90008F7D12C0373091F03830A1F03430B9F465
:102BA000809180008F7D03C0809180008F7780931B
:102BB00080000DC084B58F7784BD09C08091B000BE
:102BC0008F7703C08091B0008F7D8093B000F0E0DC
:102BD000EE0FFF1FEC56FA4FA591B4918FB7F89402
:102BE000EC91611103C020952E2301C02E2B2C9354
:102BF0008FBF08958F929F92AF92BF92CF92DF9234
:102C0000EF92FF926B017C010E94CD0C4B015C01A5
:102C1000C114D104E104F104F1F00E94CD0CDC01F7
:102C2000CB0188199909AA09BB09883E9340A105DF
:102C3000B10570F321E0C21AD108E108F10888EE6D
:102C4000880E83E0981EA11CB11CC114D104E104BC
:102C5000F10419F7DDCFFF90EF90DF90CF90BF9098
:102C6000AF909F908F900895789484B5826084BDD2
:102C700084B5816084BD85B5826085BD85B5816080
:102C800085BD80916E00816080936E0010928100FE
:102C900080918100826080938100809181008160B9
:102CA000809381008091800081608093800080917A
:102CB000B10084608093B1008091B0008160809306
:102CC000B00080917A00846080937A0080917A00CD
:102CD000826080937A0080917A00816080937A008C
:102CE00080917A00806880937A001092C100A89544
:102CF00080E090E0892B11F00E940000E0918B02AF
:102D0000F0918C0282E08083E0918702F09188024A
:102D10001082E0918902F0918A0280E18083109212
:102D20009302E0918F02F091900286E08083E0911F
:102D30008D02F0918E02808180618083E0918D020E
:102D4000F0918E02808188608083E0918D02F09105
:102D50008E02808180688083E0918D02F0918E02E6
:102D600080818F7D808381E495E09F938F930E9483
:102D70005203809144028D7F809344020F900F9004
:102D800080E090E0892B51F084E395E09F938F934E
:102D90000E9452030E9400000F900F9041E050E00B
:102DA00063E071E083E492E00E94891E6FEF81E0AE
:102DB00090E00E94A91E809182018F788093820109
:102DC000109278011092770181E291E00E9426032F
:102DD00084E093E19093D5018093D4011F921F92D8
:102DE0001F921F928FEF94E09F938F930E94520344
:102DF0000E94F20C0F900F900F900F900F900F9079
:102E00000E94F20C0E94AD03A8958091810182FF7F
:102E1000F7CF87E295E09F938F930E9452030E9421
:102E2000870C0F900F908091810182FB882780F999
:102E30001F928F938FE095E09F938F930E94520390
:102E4000A8950F900F900F900F90A8950E94AD033A
:102E50000E94FE0C0E94BA0BF8CFCF93DF93FC01C7
:102E6000108211821282148215821682DC0117965A
:102E70008AE1ED0119928A95E9F782E08383DF9177
:102E8000CF910895CF93EBE7F2E01382128288EEA0
:102E900093E0A0E0B0E084839583A683B78329E222
:102EA00031E03183208325EC30E03587248724EC22
:102EB00030E03787268720EC30E0318B208B21EC07
:102EC00030E0338B228B22EC30E0358B248B26ECE8
:102ED00030E0378B268B118E128E138E148EE8E124
:102EE000F3E01382128284839583A683B7838BE3F6
:102EF00091E09183808387E893E00E942D1786E616
:102F000093E00E942D1785E493E00E942D17E5E4DD
:102F1000F3E01682C1E0C58384E293E00E942D179E
:102F2000E4E2F3E0C6831582CF910895EF920F9308
:102F30001F93CF93DF93E80147FD02C034E001C047
:102F400034E1E42F440FFF0BF7FF03C0F195E19547
:102F5000F109E32E022F2E2FAE010E946C1ACE0132
:102F6000DF91CF911F910F91EF900895FC01882779
:102F70009927E89421912032E9F3293010F02E307E
:102F8000C8F32B3241F02D3239F4689404C00E940A
:102F90002A18820F911D219120532A30C0F31EF46C
:102FA000909581959F4F08951F93FC01992788273D
:102FB000BC01E89411911032E9F3193010F01E3081
:102FC000C8F31B3251F01D3249F4689406C00E94C8
:102FD0001518610F711D811D911D119110531A302B
:102FE000B0F33EF490958095709561957F4F8F4F2B
:102FF0009F4F1F910895BB274A3031F4992322F443
:10300000BDE2909581959F4F0C945518BB272A30AF
:1030100051F4992342F4BDE29095809570956195A5
:103020007F4F8F4F9F4F0C943318592F482F372FB6
:10303000262F660F771F881F991F660F771F881F1F
:10304000991F620F731F841F951F660F771F881FBC
:10305000991F08957AE0979F902D879F802D910D5D
:1030600011240895BB27FA01A62F62177105810567
:103070009105330B30FB66F0AA27660F771F881F78
:10308000991FAA1FA21710F0A21B63953850A9F729
:10309000A05DAA3308F0A95DA19336F7B111B193F1
:1030A0001082CA010C94E81CBB27FB015527AA27F4
:1030B000880F991FAA1FA41710F0A41B83955051C5
:1030C000B9F7A05DAA3308F0A95DA193009779F73D
:1030D000B111B1931192CB010C94E81CAEE0B0E0B9
:1030E000E4E7F8E10C94C91E8C01CA014EE04C8360
:1030F0001A83098377FF02C060E070E8FB01319713
:10310000FE83ED83A901BC01CE0101960E949A18AD
:103110004D815E8157FD0AC02F81388542175307C4
:103120000CF49A01F801E20FF31F10822E96E4E0EE
:103130000C94E51EACE0B0E0E0EAF8E10C94BB1EB4
:103140007C016B018A01FC0117821682838181FF59
:10315000BDC1CE0101964C01F7019381F60193FDAB
:10316000859193FF81916F01882309F4ABC185326A
:1031700039F493FD859193FF81916F01853229F494
:10318000B70190E00E94F81CE7CF512C312C20E0D1
:103190002032A0F48B3269F030F4803259F083325F
:1031A00069F420612CC08D3239F0803339F421600C
:1031B00026C02260246023C0286021C027FD27C0CC
:1031C00030ED380F3A3078F426FF06C0FAE05F9E03
:1031D000300D1124532E13C08AE0389E300D112477
:1031E000332E20620CC08E3221F426FD6BC1206488
:1031F00006C08C3611F4206802C0883641F4F6010E
:1032000093FD859193FF81916F018111C1CF982F1B
:103210009F7D9554933028F40C5F1F4FFFE3F98393
:103220000DC0833631F0833771F0833509F05BC010
:1032300022C0F801808189830E5F1F4F442443948C
:10324000512C540115C03801F2E06F0E711CF801C9
:10325000A080B18026FF03C0652D70E002C06FEF33
:103260007FEFC5012C870E94DD1C2C0183012C857A
:103270002F77222E17C03801F2E06F0E711CF80173
:10328000A080B18026FF03C0652D70E002C06FEF03
:103290007FEFC5012C870E94D21C2C012C85206851
:1032A000222E830123FC1BC0832D90E04816590673
:1032B000B0F4B70180E290E00E94F81C3A94F4CF99
:1032C000F50127FC859127FE81915F01B70190E010
:1032D0000E94F81C31103A94F1E04F1A5108411441
:1032E000510471F7E5C0843611F0893639F5F801DB
:1032F00027FF07C060817181828193810C5F1F4F1E
:1033000008C060817181072E000C880B990B0E5F3D
:103310001F4F2F76722E97FF09C09095809570955C
:1033200061957F4F8F4F9F4F2068722E2AE030E0CB
:10333000A4010E94301DA82EA81844C0853729F486
:103340002F7EB22E2AE030E025C0F22FF97FBF2E6B
:103350008F36C1F018F4883579F0B4C0803719F091
:10336000883721F0AFC02F2F2061B22EB4FE0DC0E0
:103370008B2D8460B82E09C024FF0AC09F2F966051
:10338000B92E06C028E030E005C020E130E002C0E0
:1033900020E132E0F801B7FE07C0608171818281CF
:1033A00093810C5F1F4F06C06081718180E090E0C7
:1033B0000E5F1F4FA4010E94301DA82EA818FB2DE0
:1033C000FF777F2E76FE0BC0372D3E7FA51450F47D
:1033D00074FE0AC072FC08C0372D3E7E05C0BA2CB0
:1033E000372D03C0BA2C01C0B52C34FF0DC0FE012F
:1033F000EA0DF11D8081803311F4397E09C032FF5E
:1034000006C0B394B39404C0832F867809F0B394B4
:1034100033FD13C030FF06C05A2CB31418F4530CFC
:103420005B18B32CB31468F4B70180E290E03C87DA
:103430000E94F81CB3943C85F5CFB31410F43B18EC
:1034400001C0312C34FF12C0B70180E390E03C870B
:103450000E94F81C3C8532FF17C031FD03C088E78D
:1034600090E002C088E590E0B7010CC0832F867819
:1034700059F031FF02C08BE201C080E237FD8DE2DE
:10348000B70190E00E94F81CA51438F4B70180E35E
:1034900090E00E94F81C5A94F7CFAA94F401EA0D28
:1034A000F11D8081B70190E00E94F81CA110F5CFBA
:1034B000332009F451CEB70180E290E00E94F81C5D
:1034C0003A94F6CFF7018681978102C08FEF9FEF84
:1034D0002C96E2E10C94D71E4F925F926F927F92EE
:1034E0009F92AF92BF92CF92DF92EF92FF920F9393
:1034F0001F93CF93DF93CDB7DEB729970FB6F8941C
:10350000DEBF0FBECDBF6A01122FB02E2BE32017F6
:1035100020F0FF24F394F00E02C0BCE3FB2E0F2D2D
:1035200027E0AE014F5F5F4F0E94FA1BAC0189811B
:10353000982F9970913031F0E1FC06C0E0FE06C092
:1035400090E205C09DE203C09BE201C090E0EE2D39
:10355000E07183FF3CC0911102C083E001C084E0B0
:10356000811718F4212F281B01C020E0E1110BC0A6
:10357000F601822F30E2882319F031938150FBCF7E
:10358000C20ED11C20E0992329F0D6019C93F601AC
:1035900031966F01C6010396E2FE0AC03EE4D601F1
:1035A0003C9341E411964C93119712963C9306C0BC
:1035B0003EE6F601308341E641833283FC01322F3F
:1035C00040E2332309F442C041933150FACF82FFE5
:1035D00044C0911102C083E001C084E0811718F457
:1035E000212F281B01C020E0E1110BC0F601822F22
:1035F00030E2882319F031938150FBCFC20ED11CE9
:1036000020E0992329F0D6019C93F60131966F01B1
:10361000C6010396E2FE0BC039E4D6013C933EE4BA
:1036200011963C93119736E412963C9307C039E605
:10363000F60130833EE6318336E63283FC01322FD9
:1036400040E2332319F041933150FBCFFC01E20FEC
:10365000F11D10828EEF9FEFB7C0F1E0911101C014
:10366000F0E06F2F70E01416150624F49A012F5F16
:103670003F4F02C021E030E0260F371FBB2029F06A
:103680006B2D70E06F5F7F4F02C060E070E0260F2F
:10369000371F612F70E0261737071CF4121B212FEC
:1036A00001C020E03E2D387159F4D601322F60E27E
:1036B000332319F06D933150FBCFC20ED11C20E0A3
:1036C000FF2331F0D6019C93B6016F5F7F4F6B01F2
:1036D000E1110BC0F601922F30E3992319F03193D9
:1036E0009150FBCFC20ED11C20E09F2D940F3A8148
:1036F000782F7071A72E84FF03C0313309F49150E5
:10370000191624F4993018F098E001C091E0E42FE4
:10371000852F57FF02C0E0E080E06E2F782FE0E0B9
:10372000F0E0AEE29A2E3A01691A71082A01461AAF
:10373000570A0B2D10E01195019511096F3F8FEF7E
:10374000780729F4D6019C92C60101966C014617B0
:10375000570784F0661677066CF47F01E40CF51CBD
:10376000A1E0B0E0AC0FBD1FEA0EFB1ED701119621
:10377000BC9002C090E3B92E615071093196C60128
:1037800001967C016017710724F0D601BC926C0190
:10379000D5CF6417750741F4363320F4353321F45F
:1037A000A11002C081E3B82EF601B082F701822F8A
:1037B00090E2882319F091938150FBCFF701E20F3B
:1037C000F11D108280E090E029960FB6F894DEBFDC
:1037D0000FBECDBFDF91CF911F910F91FF90EF9062
:1037E000DF90CF90BF90AF909F907F906F905F9051
:1037F0004F900895283008F027E03327DA01990F19
:10380000311D87FD916000966105710539F43260C4
:103810002E5F3D9330E32A95E1F708959F3F30F006
:1038200080387105610509F03C5F3C5F3D93913044
:1038300008F08068911DDF93CF931F930F93FF9241
:10384000EF92192F987F9695E92F96959695E90F07
:10385000FF27EE53FF4F99273327EE24FF24A701BC
:10386000E70105900894079428F4360FE71EF81E28
:10387000491F511D660F771F881F991F0694A1F7D6
:103880000590079428F4E70EF81E491F561FC11D26
:10389000770F881F991F661F0694A1F7059007945C
:1038A00028F4F80E491F561FC71FD11D880F991FF6
:1038B000661F771F0694A1F70590079420F4490F1F
:1038C000561FC71FD81F990F661F771F881F0694A2
:1038D000A9F784911095177041F0D695C795579523
:1038E0004795F794E7941A95C1F7E8E6F0E06894F5
:1038F0001590159135916591959105907FE273959D
:10390000E118F10A430B560BC90BD009C0F7E10CC3
:10391000F11E431F561FC91FD01D7EF4703311F4D2
:103920008A95E6CFE894015030F0080F0AF400279A
:10393000021708F4202F2395022F7A3328F079E319
:103940007D932A95E9F710C07D932A9589F6069410
:1039500097956795379517951794E118F10A430BDA
:10396000560BC90BD00998F023957E9173957A3345
:1039700008F070E37C932013B8F77E9170617D931B
:1039800030F0839571E37D9370E32A95E1F711247C
:10399000EF90FF900F911F91CF91DF91992787FDB5
:1039A00090950895FC010590615070400110D8F782
:1039B000809590958E0F9F1F0895FC016150704077
:1039C00001900110D8F7809590958E0F9F1F089554
:1039D000DC01FC01672F71917723E1F7329704C076
:1039E0007C916D9370836291AE17BF07C8F3089501
:1039F0000F931F93CF93DF93FB01238121FD03C01E
:103A00008FEF9FEF28C022FF16C046815781248187
:103A100035814217530744F4A081B1819D012F5F86
:103A20003F4F318320838C93268137812F5F3F4F17
:103A30003783268310C0EB01092F182F0084F185EE
:103A4000E02D0995892BE1F68E819F8101969F8358
:103A50008E83812F902FDF91CF911F910F91089529
:103A6000FA01AA27283051F1203181F1E8946F93AF
:103A70006E7F6E5F7F4F8F4F9F4FAF4FB1E03ED055
:103A8000B4E03CD0670F781F891F9A1FA11D680FF3
:103A9000791F8A1F911DA11D6A0F711D811D911D26
:103AA000A11D20D009F468943F912AE0269F11249B
:103AB0003019305D3193DEF6CF010895462F4770FF
:103AC000405D4193B3E00FD0C9F7F6CF462F4F705A
:103AD000405D4A3318F0495D31FD4052419302D0B8
:103AE000A9F7EACFB4E0A69597958795779567955E
:103AF000BA95C9F700976105710508959B01AC015E
:103B00000A2E06945795479537952795BA95C9F784
:103B1000620F731F841F951FA01D0895E89409C0AC
:103B200097FB3EF490958095709561957F4F8F4FF0
:103B30009F4F9923A9F0F92F96E9BB279395F69506
:103B4000879577956795B795F111F8CFFAF4BB0F84
:103B500011F460FF1BC06F5F7F4F8F4F9F4F16C0E8
:103B6000882311F096E911C0772321F09EE8872F72
:103B7000762F05C0662371F096E8862F70E060E02E
:103B80002AF09A95660F771F881FDAF7880F9695A7
:103B9000879597F908950E94DE1D0C944F1E0E9490
:103BA000411E38F00E94481E20F0952311F00C941D
:103BB000381E0C943E1E11240C94831E0E94601E1D
:103BC00070F3959FC1F3950F50E0551F629FF00170
:103BD000729FBB27F00DB11D639FAA27F00DB11D89
:103BE000AA1F649F6627B00DA11D661F829F222712
:103BF000B00DA11D621F739FB00DA11D621F839F99
:103C0000A00D611D221F749F3327A00D611D231F6E
:103C1000849F600D211D822F762F6A2F11249F57BC
:103C200050409AF0F1F088234AF0EE0FFF1FBB1FBF
:103C3000661F771F881F91505040A9F79E3F51057E
:103C400080F00C94381E0C94831E5F3FE4F3983E82
:103C5000D4F3869577956795B795F795E7959F5F28
:103C6000C1F7FE2B880F911D9695879597F90895BA
:103C700097F99F6780E870E060E008959FEF80EC1F
:103C8000089500240A9416161706180609060895C2
:103C900000240A9412161306140605060895092E28
:103CA0000394000C11F4882352F0BB0F40F4BF2B97
:103CB00011F460FF04C06F5F7F4F8F4F9F4F0895D7
:103CC00057FD9058440F551F59F05F3F71F04795CD
:103CD000880F97FB991F61F09F3F79F087950895B2
:103CE000121613061406551FF2CF4695F1DF08C0D1
:103CF000161617061806991FF1CF869571056105EE
:103D000008940895E894BB2766277727CB0197F995
:103D10000895DC01CB01FC01F999FECF06C0F2BD8C
:103D2000E1BDF89A319600B40D9241505040B8F779
:103D30000895DC01A40FB51F4150504048F0CB015D
:103D4000840F951F2E910E94AA1E41505040D0F71B
:103D50000895262FF999FECF92BD81BDF89A01975B
:103D600000B4021639F01FBA20BD0FB6F894FA9AC3
:103D7000F99A0FBE08952F923F924F925F926F92E1
:103D80007F928F929F92AF92BF92CF92DF92EF92EB
:103D9000FF920F931F93CF93DF93CDB7DEB7CA1B6C
:103DA000DB0B0FB6F894DEBF0FBECDBF09942A8897
:103DB000398848885F846E847D848C849B84AA843F
:103DC000B984C884DF80EE80FD800C811B81AA81CC
:103DD000B981CE0FD11D0FB6F894DEBF0FBECDBF97
:103DE000ED0108955058BB27AA270E940A1F0C9482
:103DF0004F1E0E94411E38F00E94481E20F039F4E8
:103E00009F3F19F426F40C943E1E0EF4E095E7FB58
:103E10000C94381EE92F0E94601E58F3BA176207EF
:103E200073078407950720F079F4A6F50C94821E99
:103E30000EF4E0950B2EBA2FA02D0B01B9019001C5
:103E40000C01CA01A0011124FF27591B99F0593F09
:103E500050F4503E68F11A16F040A22F232F342F51
:103E60004427585FF3CF469537952795A795F0409F
:103E70005395C9F77EF41F16BA0B620B730B840BB4
:103E8000BAF09150A1F0FF0FBB1F661F771F881F6C
:103E9000C2F70EC0BA0F621F731F841F48F48795C4
:103EA00077956795B795F7959E3F08F0B0CF9395B6
:103EB000880F08F09927EE0F979587950895A1E24E
:103EC0001A2EAA1BBB1BFD010DC0AA1FBB1FEE1F94
:103ED000FF1FA217B307E407F50720F0A21BB30BDF
:103EE000E40BF50B661F771F881F991F1A9469F75B
:103EF00060957095809590959B01AC01BD01CF01B7
:103F00000895EE0FFF1F0590F491E02D099481E0D4
:103F100090E0F8940C949B1FFB01DC014150504051
:103F200048F001900D920020C9F701C01D92415048
:0A3F30005040E0F70895F894FFCF29
:103F3A00FFFF00FCE1A8A86F0747079E0864084135
:103F4A0008E607BA07A8071109C708FFBD0ABD0A8C
:103F5A00FF480A370900000000510BBE0AE90A9817
:103F6A000B1A0BF80A0C0B00000000560C260CF179
:103F7A000BC40BE80BD40BC50B20004F4B00546548
:103F8A006D7065726174757265416E6448756D69AC
:103F9A006469747900312E32004E41434B0021008E
:063FAA00322E312E310021
:00000001FF
